:100000000C9472000C9493000C9493000C94930045
:100010000C9493000C9493000C9493000C94930014
:100020000C9493000C9493000C9493000C94930004
:100030000C9493000C9493000C9493000C949300F4
:100040000C9493000C9493000C9493000C949300E4
:100050000C9493000C9493000C9493000C949300D4
:100060000C9493000C9493000C9493000C949300C4
:100070000C9493000C9493000C9493000C949300B4
:100080000C9493000C9493000C9493000C949300A4
:100090000C9493000C9493000C9493000C94930094
:1000A0000C9493000C9493000C9493000C94930084
:1000B0000C9493000C9493000C9493000C94930074
:1000C0000C9493000C9493000C9493000C94930064
:1000D0000C9493000C9493000C9493000C94930054
:1000E0000C94930011241FBECFEFD1E2DEBFCDBF31
:1000F00000E00CBF12E0A0E0B2E0ECE9F4E300E0C5
:100100000BBF02C007900D92A830B107D9F712E0DB
:10011000A8E0B2E001C01D92AB31B107E1F70E9447
:100120001A130C944C1A0C9400000F931F93DF9336
:10013000CF93CDB7DEB7C057D0400FB6F894DEBF2F
:100140000FBECDBFFE01E359FF4F80E090E0A0E875
:10015000BFE380839183A283B3838E0107591F4F2E
:10016000FE01E359FF4F608171818281938126E610
:1001700036E646E655E40E947D16DC01CB01F80127
:1001800080839183A283B383FE01E759FF4F60818F
:1001900071818281938120E030E040E85FE30E943A
:1001A000D717882344F4FE01E959FF4F81E090E01E
:1001B0009183808364C0FE01E759FF4F60817181A4
:1001C0008281938120E03FEF4FE757E40E94771749
:1001D00018160CF043C0FE01E359FF4F6081718196
:1001E0008281938120E030E040E251E40E947D165C
:1001F000DC01CB018E0109591F4FBC01CD010E94CA
:10020000A714DC01CB01F801918380831FC0FE019C
:10021000EB59FF4F80E791E091838083FE01EB591A
:10022000FF4F808191810197F1F7FE01EB59FF4F5C
:1002300091838083DE01A959BF4FFE01E959FF4F29
:1002400080819181019711969C938E93FE01E959CB
:10025000FF4F808191810097D1F627C08E01095907
:100260001F4FFE01E759FF4F6081718182819381A9
:100270000E94A714DC01CB01F80191838083DE0189
:10028000AD59BF4FFE01E959FF4F808191818D9398
:100290009C93FE01ED59FF4F808191810197F1F709
:1002A000FE01ED59FF4F91838083A8E2B0E0E8E2C0
:1002B000F0E080818E7F8C93A8E2B0E0E8E2F0E08D
:1002C00080818D7F8C93E8E2F0E080E38083A8E278
:1002D000B0E0E8E2F0E0808184608C93FE01E15AB6
:1002E000FF4F80E090E0A0EAB0E480839183A28396
:1002F000B3838E01055A1F4FFE01E15AFF4F608103
:1003000071818281938126E636E646E655E40E94B5
:100310007D16DC01CB01F80180839183A283B38336
:10032000FE01E55AFF4F608171818281938120E057
:1003300030E040E85FE30E94D717882344F4FE01D1
:10034000E75AFF4F81E090E09183808364C0FE0113
:10035000E55AFF4F608171818281938120E03FEFF8
:100360004FE757E40E94771718160CF043C0FE01C0
:10037000E15AFF4F608171818281938120E030E0FA
:1003800040E251E40E947D16DC01CB018E01075A48
:100390001F4FBC01CD010E94A714DC01CB01F80165
:1003A000918380831FC0FE01E95AFF4F80E791E0EF
:1003B00091838083FE01E95AFF4F808191810197EB
:1003C000F1F7FE01E95AFF4F91838083DE01A75ABE
:1003D000BF4FFE01E75AFF4F80819181019711962F
:1003E0009C938E93FE01E75AFF4F80819181009785
:1003F000D1F627C08E01075A1F4FFE01E55AFF4F65
:1004000060817181828193810E94A714DC01CB01FC
:10041000F80191838083DE01AB5ABF4FFE01E75A9A
:10042000FF4F808191818D939C93FE01EB5AFF4F8A
:10043000808191810197F1F7FE01EB5AFF4F918383
:100440008083A8E2B0E0E8E2F0E080818B7F8C93CB
:10045000FE01EF5AFF4F80E090E0A0E8BFE3808309
:100460009183A283B3838E01035B1F4FFE01EF5A7A
:10047000FF4F608171818281938126E636E646E6F0
:1004800055E40E947D16DC01CB01F8018083918345
:10049000A283B383FE01E35BFF4F608171818281A0
:1004A000938120E030E040E85FE30E94D717882383
:1004B00044F4FE01E55BFF4F81E090E0918380838F
:1004C00064C0FE01E35BFF4F608171818281938193
:1004D00020E03FEF4FE757E40E94771718160CF023
:1004E00043C0FE01EF5AFF4F608171818281938189
:1004F00020E030E040E251E40E947D16DC01CB01B7
:100500008E01055B1F4FBC01CD010E94A714DC01C9
:10051000CB01F801918380831FC0FE01E75BFF4F91
:1005200080E791E091838083FE01E75BFF4F80814C
:1005300091810197F1F7FE01E75BFF4F9183808383
:10054000DE01A55BBF4FFE01E55BFF4F808191811E
:10055000019711969C938E93FE01E55BFF4F80817E
:1005600091810097D1F627C08E01055B1F4FFE01D8
:10057000E35BFF4F60817181828193810E94A714A8
:10058000DC01CB01F80191838083DE01A95BBF4FC1
:10059000FE01E55BFF4F808191818D939C93FE016D
:1005A000E95BFF4F808191810197F1F7FE01E95BE3
:1005B000FF4F91838083A8E2B0E0E8E2F0E0808121
:1005C0008E7F8C93A8E2B0E0E8E2F0E080818D7F3E
:1005D0008C93E8E2F0E080E38083A8E2B0E0E8E218
:1005E000F0E0808184608C93FE01ED5BFF4F80E042
:1005F00090E0A0EAB0E480839183A283B3838E016C
:10060000015C1F4FFE01ED5BFF4F608171818281B4
:10061000938126E636E646E655E40E947D16DC0127
:10062000CB01F80180839183A283B383FE01FF96FF
:10063000608171818281938120E030E040E85FE356
:100640000E94D71788232CF481E090E09EAF8DAFF5
:1006500046C0FE01FF96608171818281938120E016
:100660003FEF4FE757E40E947717181664F5FE0135
:10067000ED5BFF4F608171818281938120E030E0EA
:1006800040E251E40E947D16DC01CB01BC01CD01AA
:100690000E94A714DC01CB019EAF8DAF0FC080E795
:1006A00091E09CAF8BAF8BAD9CAD0197F1F79CAF08
:1006B0008BAF8DAD9EAD01979EAF8DAF8DAD9EADD5
:1006C000009769F716C0FE01FF96608171818281F3
:1006D00093810E94A714DC01CB019EAF8DAF8DAD3D
:1006E0009EAD9AAF89AF89AD9AAD0197F1F79AAFF8
:1006F00089AFA8E2B0E0E8E2F0E080818B7F8C93E4
:1007000080E090E0A0E8BFE38DAB9EABAFABB8AFAD
:100710006DA97EA98FA998AD26E636E646E655E492
:100720000E947D16DC01CB0189AB9AABABABBCABB5
:1007300069A97AA98BA99CA920E030E040E85FE391
:100740000E94D71788232CF481E090E098AB8FA704
:100750003FC069A97AA98BA99CA920E03FEF4FE788
:1007600057E40E94771718164CF56DA97EA98FA93A
:1007700098AD20E030E040E251E40E947D16DC01BB
:10078000CB01BC01CD010E94A714DC01CB0198ABC9
:100790008FA70FC080E791E09EA78DA78DA59EA58E
:1007A0000197F1F79EA78DA78FA598A9019798AB00
:1007B0008FA78FA598A9009769F714C069A97AA98E
:1007C0008BA99CA90E94A714DC01CB0198AB8FA731
:1007D0008FA598A99CA78BA78BA59CA50197F1F73E
:1007E0009CA78BA7A8E2B0E0E8E2F0E080818E7FD2
:1007F0008C93A8E2B0E0E8E2F0E080818D7F8C93FA
:10080000E8E2F0E080E38083A8E2B0E0E8E2F0E034
:10081000808184608C9380E090E0A0EAB0E48FA3B4
:1008200098A7A9A7BAA76FA178A589A59AA526E632
:1008300036E646E655E40E947D16DC01CB018BA32B
:100840009CA3ADA3BEA36BA17CA18DA19EA120E022
:1008500030E040E85FE30E94D71788232CF481E062
:1008600090E09AA389A33FC06BA17CA18DA19EA11A
:1008700020E03FEF4FE757E40E94771718164CF53A
:100880006FA178A589A59AA520E030E040E251E467
:100890000E947D16DC01CB01BC01CD010E94A71492
:1008A000DC01CB019AA389A30FC080E791E098A354
:1008B0008F8F8F8D98A10197F1F798A38F8F89A1C2
:1008C0009AA101979AA389A389A19AA1009769F790
:1008D00014C06BA17CA18DA19EA10E94A714DC0174
:1008E000CB019AA389A389A19AA19E8F8D8F8D8D0B
:1008F0009E8D0197F1F79E8F8D8FA8E2B0E0E8E220
:10090000F0E080818B7F8C9380E090E0A0E8BFE3F3
:10091000898F9A8FAB8FBC8F698D7A8D8B8D9C8DD3
:1009200026E636E646E655E40E947D16DC01CB015C
:100930008D8B9E8BAF8BB88F6D897E898F89988DBB
:1009400020E030E040E85FE30E94D71788232CF4D2
:1009500081E090E09C8B8B8B3FC06D897E898F8975
:10096000988D20E03FEF4FE757E40E947717181665
:100970004CF5698D7A8D8B8D9C8D20E030E040E2C6
:1009800051E40E947D16DC01CB01BC01CD010E9427
:10099000A714DC01CB019C8B8B8B0FC080E791E00F
:1009A0009A8B898B89899A890197F1F79A8B898B20
:1009B0008B899C8901979C8B8B8B8B899C89009759
:1009C00069F714C06D897E898F89988D0E94A7145C
:1009D000DC01CB019C8B8B8B8B899C89988B8F87BF
:1009E0008F8598890197F1F7988B8F87A8E2B0E0FF
:1009F000E8E2F0E080818E7F8C93A8E2B0E0E8E24C
:100A0000F0E080818D7F8C93E8E2F0E080E28083EB
:100A1000A8E2B0E0E8E2F0E0808184608C9380E0BE
:100A200090E0A0EAB0E48B879C87AD87BE876B859A
:100A30007C858D859E8526E636E646E655E40E9451
:100A40007D16DC01CB018F839887A987BA876F81D8
:100A5000788589859A8520E030E040E85FE30E9450
:100A6000D71788232CF481E090E09E838D833FC0CC
:100A70006F81788589859A8520E03FEF4FE757E4BD
:100A80000E94771718164CF56B857C858D859E85A1
:100A900020E030E040E251E40E947D16DC01CB0111
:100AA000BC01CD010E94A714DC01CB019E838D8384
:100AB0000FC080E791E09C838B838B819C810197A1
:100AC000F1F79C838B838D819E8101979E838D831B
:100AD0008D819E81009769F714C06F817885898523
:100AE0009A850E94A714DC01CB019E838D838D81A2
:100AF0009E819A83898389819A810197F1F79A83EC
:100B00008983A8E2B0E0E8E2F0E080818B7F8C93FB
:100B1000C059DF4F0FB6F894DEBF0FBECDBFCF91E7
:100B2000DF911F910F910895DF93CF93CDB7DEB77B
:100B30002E970FB6F894DEBF0FBECDBF80E090E0D9
:100B4000A0E8BFE38B879C87AD87BE876B857C85DC
:100B50008D859E8526E636E646E655E40E947D169E
:100B6000DC01CB018F839887A987BA876F8178854D
:100B700089859A8520E030E040E85FE30E94D7173E
:100B800088232CF481E090E09E838D833FC06F81A9
:100B9000788589859A8520E03FEF4FE757E40E94EA
:100BA000771718164CF56B857C858D859E8520E022
:100BB00030E040E251E40E947D16DC01CB01BC0133
:100BC000CD010E94A714DC01CB019E838D830FC051
:100BD00080E791E09C838B838B819C810197F1F767
:100BE0009C838B838D819E8101979E838D838D81D4
:100BF0009E81009769F714C06F81788589859A85F1
:100C00000E94A714DC01CB019E838D838D819E8180
:100C10009A83898389819A810197F1F79A838983DD
:100C200088E20E94280681E00E94280686E00E9451
:100C300028068EE00E94280680E80E9428062E964C
:100C40000FB6F894DEBF0FBECDBFCF91DF910895F0
:100C5000DF93CF93CDB7DEB76E970FB6F894DEBFB4
:100C60000FBECDBF8E8F8E8D8D8F8D8D807F8D8FA2
:100C7000A8E2B0E0E8E2F0E080818F708C93A8E217
:100C8000B0E0E8E2F0E090818D8D892B8C93A8E2B2
:100C9000B0E0E8E2F0E080818E7F8C93A8E2B0E0E3
:100CA000E8E2F0E080818D7F8C93A8E2B0E0E8E29A
:100CB000F0E0808184608C9380E090E0A0EAB0E472
:100CC000898F9A8FAB8FBC8F698D7A8D8B8D9C8D20
:100CD00026E636E646E655E40E947D16DC01CB01A9
:100CE0008D8B9E8BAF8BB88F6D897E898F89988D08
:100CF00020E030E040E85FE30E94D71788232CF41F
:100D000081E090E09C8B8B8B3FC06D897E898F89C1
:100D1000988D20E03FEF4FE757E40E9477171816B1
:100D20004CF5698D7A8D8B8D9C8D20E030E040E212
:100D300051E40E947D16DC01CB01BC01CD010E9473
:100D4000A714DC01CB019C8B8B8B0FC080E791E05B
:100D50009A8B898B89899A890197F1F79A8B898B6C
:100D60008B899C8901979C8B8B8B8B899C890097A5
:100D700069F714C06D897E898F89988D0E94A714A8
:100D8000DC01CB019C8B8B8B8B899C89988B8F870B
:100D90008F8598890197F1F7988B8F87A8E2B0E04B
:100DA000E8E2F0E080818B7F8C938E8D8F708E8F48
:100DB0008E8D8295807F8E8FA8E2B0E0E8E2F0E031
:100DC00080818F708C93A8E2B0E0E8E2F0E090813F
:100DD0008E8D892B8C93A8E2B0E0E8E2F0E0808170
:100DE0008E7F8C93A8E2B0E0E8E2F0E080818D7F16
:100DF0008C93A8E2B0E0E8E2F0E0808184608C931C
:100E000080E090E0A0EAB0E48B879C87AD87BE8746
:100E10006B857C858D859E8526E636E646E655E41F
:100E20000E947D16DC01CB018F839887A987BA8742
:100E30006F81788589859A8520E030E040E85FE31E
:100E40000E94D71788232CF481E090E09E838D8345
:100E50003FC06F81788589859A8520E03FEF4FE715
:100E600057E40E94771718164CF56B857C858D85A5
:100E70009E8520E030E040E251E40E947D16DC01D6
:100E8000CB01BC01CD010E94A714DC01CB019E83E4
:100E90008D830FC080E791E09C838B838B819C8145
:100EA0000197F1F79C838B838D819E8101979E83AF
:100EB0008D838D819E81009769F714C06F8178853D
:100EC00089859A850E94A714DC01CB019E838D83BE
:100ED0008D819E819A83898389819A810197F1F717
:100EE0009A838983A8E2B0E0E8E2F0E080818B7F1A
:100EF0008C936E960FB6F894DEBF0FBECDBFCF9128
:100F0000DF910895DF93CF93CDB7DEB76E970FB61D
:100F1000F894DEBF0FBECDBF8E8F8E8D8D8F8D8DE1
:100F2000807F8D8FA8E2B0E0E8E2F0E080818F70F2
:100F30008C93A8E2B0E0E8E2F0E090818D8D892BFF
:100F40008C93A8E2B0E0E8E2F0E0808181608C93CD
:100F5000A8E2B0E0E8E2F0E080818D7F8C93A8E227
:100F6000B0E0E8E2F0E0808184608C9380E090E083
:100F7000A0EAB0E4898F9A8FAB8FBC8F698D7A8D90
:100F80008B8D9C8D26E636E646E655E40E947D165E
:100F9000DC01CB018D8B9E8BAF8BB88F6D897E89E9
:100FA0008F89988D20E030E040E85FE30E94D717FA
:100FB00088232CF481E090E09C8B8B8B3FC06D8963
:100FC0007E898F89988D20E03FEF4FE757E40E949C
:100FD000771718164CF5698D7A8D8B8D9C8D20E0D6
:100FE00030E040E251E40E947D16DC01CB01BC01FF
:100FF000CD010E94A714DC01CB019C8B8B8B0FC011
:1010000080E791E09A8B898B89899A890197F1F71A
:101010009A8B898B8B899C8901979C8B8B8B8B8975
:101020009C89009769F714C06D897E898F89988D96
:101030000E94A714DC01CB019C8B8B8B8B899C8934
:10104000988B8F878F8598890197F1F7988B8F8779
:10105000A8E2B0E0E8E2F0E080818B7F8C938E8D97
:101060008F708E8F8E8D8295807F8E8FA8E2B0E0FC
:10107000E8E2F0E080818F708C93A8E2B0E0E8E2D3
:10108000F0E090818E8D892B8C93A8E2B0E0E8E2AD
:10109000F0E0808181608C93A8E2B0E0E8E2F0E0CB
:1010A00080818D7F8C93A8E2B0E0E8E2F0E080815F
:1010B00084608C9380E090E0A0EAB0E48B879C870A
:1010C000AD87BE876B857C858D859E8526E636E659
:1010D00046E655E40E947D16DC01CB018F8398879C
:1010E000A987BA876F81788589859A8520E030E065
:1010F00040E85FE30E94D71788232CF481E090E05A
:101100009E838D833FC06F81788589859A8520E095
:101110003FEF4FE757E40E94771718164CF56B85A1
:101120007C858D859E8520E030E040E251E40E9480
:101130007D16DC01CB01BC01CD010E94A714DC01AE
:10114000CB019E838D830FC080E791E09C838B83CE
:101150008B819C810197F1F79C838B838D819E818C
:1011600001979E838D838D819E81009769F714C0BE
:101170006F81788589859A850E94A714DC01CB014F
:101180009E838D838D819E819A83898389819A81B3
:101190000197F1F79A838983A8E2B0E0E8E2F0E0F2
:1011A00080818B7F8C936E960FB6F894DEBF0FBE56
:1011B000CDBFCF91DF910895DF93CF93CDB7DEB749
:1011C00080E80E942806CF91DF910895DF93CF93A6
:1011D0000F920F92CDB7DEB79A8389830AC0E98157
:1011E000FA8180810E94820789819A8101969A837F
:1011F0008983E981FA818081882389F70F900F9094
:10120000CF91DF910895DF93CF9300D00F92CDB7A8
:10121000DEB789836A838981282F30E03C832B8362
:101220008B819C8182309105D9F02B813C812330C8
:10123000310534F48B819C818130910561F01EC0B1
:101240002B813C812330310581F08B819C8184305E
:10125000910581F013C08A8181580E9428060EC032
:101260008A8181540E94280609C08A818D560E9475
:10127000280604C08A818D520E9428060F900F9084
:101280000F900F90CF91DF910895DF93CF93CDB75B
:10129000DEB727970FB6F894DEBF0FBECDBF8A83A7
:1012A0006B835D834C833F832E8319828A818823DD
:1012B00019F08B81882319F40E94DC0804C08A810C
:1012C0006B810E9403098E819F818530910519F001
:1012D00089818130A9F48C819D8120E137E2B901B7
:1012E0000E94011ACB01C09690930D0280930C02CC
:1012F00080910C0290910D020E94820781E0898307
:101300008E819F818430910519F08981813011F59A
:101310008C819D8128EE33E0B9010E94011ACB0136
:1013200090930F0280930E0280910E0290910F0213
:101330002AE030E0B9010E94011AC09690931A0287
:10134000809319028091190290911A020E948207DB
:1013500081E089838E819F818330910519F0898195
:10136000813011F58C819D8124E630E0B9010E9425
:10137000011ACB0190930F0280930E0280910E020E
:1013800090910F022AE030E0B9010E94011AC09644
:101390009093160280931502809115029091160287
:1013A0000E94820781E089838E819F81823091052E
:1013B00019F08981813011F58C819D812AE030E01E
:1013C000B9010E94011ACB0190930F0280930E0283
:1013D00080910E0290910F022AE030E0B9010E9444
:1013E000011AC09690931402809313028091130205
:1013F000909114020E94820781E089838E819F81EF
:101400008130910519F08981813091F48C819D8121
:101410002AE030E0B9010E94011AC09690931802A8
:101420008093170280911702909118020E94820700
:101430008E819F81863091051CF085E40E94820791
:1014400027960FB6F894DEBF0FBECDBFCF91DF91C8
:101450000895DF93CF93CDB7DEB7A7E2B0E0E7E220
:10146000F0E08081876F8C93A8E2B0E0E8E2F0E0E2
:10147000808180788C93CF91DF910895DF93CF9313
:10148000CDB7DEB7E0E3F0E01082E1E3F0E01082F8
:10149000E7E0F1E01082E8E0F1E01082CF91DF9127
:1014A0000895DF93CF93CDB7DEB7A1E2B0E0E1E2DC
:1014B000F0E080818F608C93A2E2B0E0E2E2F0E0A5
:1014C0008081807F8C93AAE0B1E0EAE0F1E0808146
:1014D00088618C93ABE0B1E0EBE0F1E08081886162
:1014E0008C93CF91DF910895DF93CF93CDB7DEB783
:1014F0000E94290A0E943E0A0E94510ACF91DF9160
:101500000895DF93CF93CDB7DEB7E1E2F1E010822B
:10151000E5E2F1E08FEF8083E4E2F1E081E08083B7
:10152000E9E2F1E01082E8E2F1E08FEF8083EBE2A4
:10153000F1E01082EAE2F1E08FEF8083EDE2F1E08A
:101540001082ECE2F1E08FEF8083E0E2F1E089EAE3
:101550008083E1E2F1E08BE08083CF91DF91089519
:10156000DF93CF93CDB7DEB7EAE7F0E01082EBE789
:10157000F0E01082ECE7F0E080E28083E0E5F0E06C
:1015800080E88083EAE7F0E086E88083CF91DF910E
:101590000895DF93CF930F920F92CDB7DEB78A8372
:1015A0008A81883020F0EBE7F0E088E080838A8150
:1015B00087708A83ECE7F0E08A8180628083AAE703
:1015C000B0E0EAE7F0E0808180648C93EAE7F0E045
:1015D0008081882F90E0807190700097B9F3E9E7DF
:1015E000F0E080818983AAE7B0E0EAE7F0E080815B
:1015F00080618C93EBE7F0E0108289810F900F906F
:10160000CF91DF910895DF93CF9300D0CDB7DEB7B0
:1016100089836A834B838B810E94C90A809310025D
:1016200080911002282F30E089816A81A90123E08E
:1016300030E00E9445090F900F900F90CF91DF91FD
:101640000895DF93CF930F920F92CDB7DEB78983C2
:101650006A83E8E2F1E089818083EAE2F1E08A814D
:1016600080830F900F90CF91DF910895DF93CF93F8
:101670000F920F92CDB7DEB78A8319828A818F705D
:101680008A83E2E2F0E0808189838981807F898397
:1016900099818A81892B8983E2E2F0E089818083C4
:1016A0000F900F90CF91DF910895DF93CF93CDB737
:1016B000DEB786E00E94360BCF91DF910895DF936D
:1016C000CF93CDB7DEB780E00E94360BCF91DF918C
:1016D0000895DF93CF93CDB7DEB784E00E94360B39
:1016E000CF91DF910895DF93CF93CDB7DEB782E03E
:1016F0000E94360BCF91DF910895DF93CF93CDB742
:10170000DEB781E00E94360BCF91DF910895DF9321
:10171000CF93CDB7DEB788E00E94360BCF91DF9133
:101720000895DF93CF93CDB7DEB7F8940E94740A83
:101730000E94B00A0E94810A7894CF91DF910895A7
:101740000F931F93DF93CF93CDB7DEB7C656D0402C
:101750000FB6F894DEBF0FBECDBF0E94910B0E9462
:1017600095000E94940583E00E94C90A80930902B3
:1017700082E00E94C90A80930A0281E00E94C90A9D
:1017800080930B021092080281E061E043E00E9426
:10179000030B81E065E042E00E94030B81E069E019
:1017A00041E00E94030B809109028C3070F480911B
:1017B0000A028D3050F080910B028C3030F40E9480
:1017C000550B82E862E80E94210B809109028C305F
:1017D00008F079C180910A028C3008F074C18091C0
:1017E0000B028D3008F46FC182E862E30E94210B86
:1017F000FE01E15AFF4F80E090E0A0EAB1E480836F
:101800009183A283B3838E01055A1F4FFE01E15AD3
:10181000FF4F608171818281938126E636E646E63C
:1018200055E40E947D16DC01CB01F8018083918391
:10183000A283B383FE01E55AFF4F608171818281EB
:10184000938120E030E040E85FE30E94D7178823CF
:1018500044F4FE01E75AFF4F81E090E091838083DA
:1018600064C0FE01E55AFF4F6081718182819381DE
:1018700020E03FEF4FE757E40E94771718160CF06F
:1018800043C0FE01E15AFF4F6081718182819381E3
:1018900020E030E040E251E40E947D16DC01CB0103
:1018A0008E01075A1F4FBC01CD010E94A714DC0115
:1018B000CB01F801918380831FC0FE01E95AFF4FDD
:1018C00080E791E091838083FE01E95AFF4F808198
:1018D00091810197F1F7FE01E95AFF4F91838083CF
:1018E000DE01A75ABF4FFE01E75AFF4F8081918169
:1018F000019711969C938E93FE01E75AFF4F8081CA
:1019000091810097D1F627C08E01075A1F4FFE0123
:10191000E55AFF4F60817181828193810E94A714F3
:10192000DC01CB01F80191838083DE01AB5ABF4F0C
:10193000FE01E75AFF4F808191818D939C93FE01B8
:10194000EB5AFF4F808191810197F1F7FE01EB5A2D
:10195000FF4F9183808382E362E80E94210BFE01A6
:10196000EF5AFF4F80E090E0A0EFB1E480839183D5
:10197000A283B3838E01035B1F4FFE01EF5AFF4F1B
:10198000608171818281938126E636E646E655E4E0
:101990000E947D16DC01CB01F80180839183A28334
:1019A000B383FE01E35BFF4F60817181828193818C
:1019B00020E030E040E85FE30E94D717882344F43A
:1019C000FE01E55BFF4F81E090E09183808364C07E
:1019D000FE01E35BFF4F608171818281938120E092
:1019E0003FEF4FE757E40E94771718160CF043C0FB
:1019F000FE01EF5AFF4F608171818281938120E067
:101A000030E040E251E40E947D16DC01CB018E0102
:101A1000055B1F4FBC01CD010E94A714DC01CB0167
:101A2000F801918380831FC0FE01E75BFF4F80E7D1
:101A300091E091838083FE01E75BFF4F808191817C
:101A40000197F1F7FE01E75BFF4F91838083DE0191
:101A5000A55BBF4FFE01E55BFF4F80819181019740
:101A600011969C938E93FE01E55BFF4F80819181DF
:101A70000097D1F628C08E01055B1F4FFE01E35B86
:101A8000FF4F60817181828193810E94A714DC01E4
:101A9000CB01F80191838083DE01A95BBF4FFE017A
:101AA000E55BFF4F8081918111969C938E93FE019F
:101AB000E95BFF4F808191810197F1F7FE01E95BBE
:101AC000FF4F91838083809109028C3008F093C08E
:101AD00080910A028C3008F08EC080910B028D300C
:101AE00008F489C082E86EE10E94210BFE01ED5BE3
:101AF000FF4F80E090E0A0EAB1E480839183A2836D
:101B0000B3838E01015C1F4FFE01ED5BFF4F6081CF
:101B100071818281938126E636E646E655E40E948D
:101B20007D16DC01CB01F80180839183A283B3830E
:101B3000FE01FF96608171818281938120E030E017
:101B400040E85FE30E94D71788232CF481E090E0FF
:101B50009EAF8DAF46C0FE01FF966081718182818C
:101B6000938120E03FEF4FE757E40E947717181664
:101B700064F5FE01ED5BFF4F60817181828193818D
:101B800020E030E040E251E40E947D16DC01CB0110
:101B9000BC01CD010E94A714DC01CB019EAF8DAF2B
:101BA0000FC080E791E09CAF8BAF8BAD9CAD0197F0
:101BB000F1F79CAF8BAF8DAD9EAD01979EAF8DAF12
:101BC0008DAD9EAD009769F716C0FE01FF9660814E
:101BD0007181828193810E94A714DC01CB019EAFA9
:101BE0008DAF8DAD9EAD9AAF89AF89AD9AAD01979E
:101BF000F1F79AAF89AF809109028C3008F080C06C
:101C000080910A028D3008F47BC080910B028D30E8
:101C100008F476C082E86EE10E94210B80E090E03B
:101C2000A0E2B1E48DAB9EABAFABB8AF6DA97EA91E
:101C30008FA998AD26E636E646E655E40E947D1665
:101C4000DC01CB0189AB9AABABABBCAB69A97AA980
:101C50008BA99CA920E030E040E85FE30E94D71701
:101C600088232CF481E090E098AB8FA73FC069A94E
:101C70007AA98BA99CA920E03FEF4FE757E40E9487
:101C8000771718164CF56DA97EA98FA998AD20E09D
:101C900030E040E251E40E947D16DC01CB01BC0142
:101CA000CD010E94A714DC01CB0198AB8FA70FC018
:101CB00080E791E09EA78DA78DA59EA50197F1F7DE
:101CC0009EA78DA78FA598A9019798AB8FA78FA5E1
:101CD00098A9009769F714C069A97AA98BA99CA94A
:101CE0000E94A714DC01CB0198AB8FA78FA598A900
:101CF0009CA78BA78BA59CA50197F1F79CA78BA709
:101D0000809109028D3008F480C080910A028C30E5
:101D100008F07BC080910B028C3008F076C08EE119
:101D200062E80E94210B80E090E0A0EAB1E48FA37A
:101D300098A7A9A7BAA76FA178A589A59AA526E60D
:101D400036E646E655E40E947D16DC01CB018BA306
:101D50009CA3ADA3BEA36BA17CA18DA19EA120E0FD
:101D600030E040E85FE30E94D71788232CF481E03D
:101D700090E09AA389A33FC06BA17CA18DA19EA1F5
:101D800020E03FEF4FE757E40E94771718164CF515
:101D90006FA178A589A59AA520E030E040E251E442
:101DA0000E947D16DC01CB01BC01CD010E94A7146D
:101DB000DC01CB019AA389A30FC080E791E098A32F
:101DC0008F8F8F8D98A10197F1F798A38F8F89A19D
:101DD0009AA101979AA389A389A19AA1009769F76B
:101DE00014C06BA17CA18DA19EA10E94A714DC014F
:101DF000CB019AA389A389A19AA19E8F8D8F8D8DE6
:101E00009E8D0197F1F79E8F8D8F809109028D3005
:101E100008F480C080910A028D3008F47BC0809164
:101E20000B028C3008F076C08EE162E80E94210B34
:101E300080E090E0A0E2B1E4898F9A8FAB8FBC8FF5
:101E4000698D7A8D8B8D9C8D26E636E646E655E4C7
:101E50000E947D16DC01CB018D8B9E8BAF8BB88FE2
:101E60006D897E898F89988D20E030E040E85FE3BE
:101E70000E94D71788232CF481E090E09C8B8B8BF9
:101E80003FC06D897E898F89988D20E03FEF4FE7B5
:101E900057E40E94771718164CF5698D7A8D8B8D53
:101EA0009C8D20E030E040E251E40E947D16DC0190
:101EB000CB01BC01CD010E94A714DC01CB019C8B9E
:101EC0008B8B0FC080E791E09A8B898B89899A89E7
:101ED0000197F1F79A8B898B8B899C8901979C8B51
:101EE0008B8B8B899C89009769F714C06D897E89DB
:101EF0008F89988D0E94A714DC01CB019C8B8B8B62
:101F00008B899C89988B8F878F8598890197F1F7AA
:101F1000988B8F87809109028D3008F424CC8091B2
:101F20000A028D3008F41FCC80910B028D3008F42A
:101F30001ACCDE01AB59BF4FFE01ED59FF4F808136
:101F400091818D939C93DE01AD59BF4FFE01EB59FA
:101F5000FF4F8081918101968D939C93FE01ED59F5
:101F6000FF4F2081318182E068E0A90123E030E069
:101F70000E944509FE01EB59FF4F2081318182E02B
:101F80006CE0A90123E030E00E94450982E862E8A4
:101F90000E94210B80E090E0A1EEB3E48B879C8748
:101FA000AD87BE876B857C858D859E8526E636E66A
:101FB00046E655E40E947D16DC01CB018F839887AD
:101FC000A987BA876F81788589859A8520E030E076
:101FD00040E85FE30E94D71788232CF481E090E06B
:101FE0009E838D833FC06F81788589859A8520E0A7
:101FF0003FEF4FE757E40E94771718164CF56B85B3
:102000007C858D859E8520E030E040E251E40E9491
:102010007D16DC01CB01BC01CD010E94A714DC01BF
:10202000CB019E838D830FC080E791E09C838B83DF
:102030008B819C810197F1F79C838B838D819E819D
:1020400001979E838D838D819E81009769F714C0CF
:102050006F81788589859A850E94A714DC01CB0160
:102060009E838D838D819E819A83898389819A81C4
:102070000197F1F79A83898380E060E00E94210B49
:10208000CA59DF4F0FB6F894DEBF0FBECDBFCF9158
:10209000DF911F910F910895DF93CF93CDB7DEB7F6
:1020A0002E970FB6F894DEBF0FBECDBF83E00E941F
:1020B000C90A8093090282E00E94C90A80930A0239
:1020C00081E00E94C90A80930B021092080281E00D
:1020D00061E043E00E94030B81E065E042E00E9482
:1020E000030B81E069E041E00E94030B80E062E8BD
:1020F0000E94210B80E090E0A0E2B1E48B879C87F6
:10210000AD87BE876B857C858D859E8526E636E608
:1021100046E655E40E947D16DC01CB018F8398874B
:10212000A987BA876F81788589859A8520E030E014
:1021300040E85FE30E94D71788232CF481E090E009
:102140009E838D833FC06F81788589859A8520E045
:102150003FEF4FE757E40E94771718164CF56B8551
:102160007C858D859E8520E030E040E251E40E9430
:102170007D16DC01CB01BC01CD010E94A714DC015E
:10218000CB019E838D830FC080E791E09C838B837E
:102190008B819C810197F1F79C838B838D819E813C
:1021A00001979E838D838D819E81009769F714C06E
:1021B0006F81788589859A850E94A714DC01CB01FF
:1021C0009E838D838D819E819A83898389819A8163
:1021D0000197F1F79A838983809109028D3008F481
:1021E00065CF80E060E00E94210B2E960FB6F89438
:1021F000DEBF0FBECDBFCF91DF910895DF93CF93A8
:10220000CDB7DEB72E970FB6F894DEBF0FBECDBFA9
:102210000E94870B83E00E94C90A8093090282E032
:102220000E94C90A80930A0281E00E94C90A809331
:102230000B021092080281E061E043E00E94030B70
:1022400081E065E042E00E94030B81E069E041E04B
:102250000E94030B80E062E80E94210B80E090E086
:10226000A0E2B1E48B879C87AD87BE876B857C85B8
:102270008D859E8526E636E646E655E40E947D1667
:10228000DC01CB018F839887A987BA876F81788516
:1022900089859A8520E030E040E85FE30E94D71707
:1022A00088232CF481E090E09E838D833FC06F8172
:1022B000788589859A8520E03FEF4FE757E40E94B3
:1022C000771718164CF56B857C858D859E8520E0EB
:1022D00030E040E251E40E947D16DC01CB01BC01FC
:1022E000CD010E94A714DC01CB019E838D830FC01A
:1022F00080E791E09C838B838B819C810197F1F730
:102300009C838B838D819E8101979E838D838D819C
:102310009E81009769F714C06F81788589859A85B9
:102320000E94A714DC01CB019E838D838D819E8149
:102330009A83898389819A810197F1F79A838983A6
:1023400080910A028D3008F465CF80E060E00E9441
:10235000210B2E960FB6F894DEBF0FBECDBFCF91E6
:10236000DF910895DF93CF93CDB7DEB72E970FB6E9
:10237000F894DEBF0FBECDBF0E94730B83E00E94B6
:10238000C90A8093090282E00E94C90A80930A0266
:1023900081E00E94C90A80930B021092080281E03A
:1023A00061E043E00E94030B81E065E042E00E94AF
:1023B000030B81E069E041E00E94030B82E860E0EA
:1023C0000E94210B80E090E0A0E2B1E48B879C8723
:1023D000AD87BE876B857C858D859E8526E636E636
:1023E00046E655E40E947D16DC01CB018F83988779
:1023F000A987BA876F81788589859A8520E030E042
:1024000040E85FE30E94D71788232CF481E090E036
:102410009E838D833FC06F81788589859A8520E072
:102420003FEF4FE757E40E94771718164CF56B857E
:102430007C858D859E8520E030E040E251E40E945D
:102440007D16DC01CB01BC01CD010E94A714DC018B
:10245000CB019E838D830FC080E791E09C838B83AB
:102460008B819C810197F1F79C838B838D819E8169
:1024700001979E838D838D819E81009769F714C09B
:102480006F81788589859A850E94A714DC01CB012C
:102490009E838D838D819E819A83898389819A8190
:1024A0000197F1F79A83898380910B028D3008F4AC
:1024B00065CF80E060E00E94210B2E960FB6F89465
:1024C000DEBF0FBECDBFCF91DF910895DF93CF93D5
:1024D000CDB7DEB72E970FB6F894DEBF0FBECDBFD7
:1024E0000E947D0B83E00E94C90A8093090282E06A
:1024F0000E94C90A80930A0281E00E94C90A80935F
:102500000B021092080281E061E043E00E94030B9D
:1025100081E065E042E00E94030B81E069E041E078
:102520000E94030B82E860E00E94210B80E090E0B3
:10253000A0E2B1E48B879C87AD87BE876B857C85E5
:102540008D859E8526E636E646E655E40E947D1694
:10255000DC01CB018F839887A987BA876F81788543
:1025600089859A8520E030E040E85FE30E94D71734
:1025700088232CF481E090E09E838D833FC06F819F
:10258000788589859A8520E03FEF4FE757E40E94E0
:10259000771718164CF56B857C858D859E8520E018
:1025A00030E040E251E40E947D16DC01CB01BC0129
:1025B000CD010E94A714DC01CB019E838D830FC047
:1025C00080E791E09C838B838B819C810197F1F75D
:1025D0009C838B838D819E8101979E838D838D81CA
:1025E0009E81009769F714C06F81788589859A85E7
:1025F0000E94A714DC01CB019E838D838D819E8177
:102600009A83898389819A810197F1F79A838983D3
:1026100080910A028D3008F465CF80E060E00E946E
:10262000210B2E960FB6F894DEBF0FBECDBFCF9113
:10263000DF910895DF93CF93CDB7DEB76C970FB6D8
:10264000F894DEBF0FBECDBF0E94A00B0E94690BA5
:1026500083E00E94C90A8093090282E00E94C90AAD
:1026600080930A0281E00E94C90A80930B0281E0F4
:1026700061E043E00E94030B81E065E042E00E94DC
:10268000030B81E069E041E00E94030B80E062E817
:102690000E94210B80E090E0A0E2B1E4898F9A8F44
:1026A000AB8FBC8F698D7A8D8B8D9C8D26E636E63F
:1026B00046E655E40E947D16DC01CB018D8B9E8B96
:1026C000AF8BB88F6D897E898F89988D20E030E03F
:1026D00040E85FE30E94D71788232CF481E090E064
:1026E0009C8B8B8B3FC06D897E898F89988D20E074
:1026F0003FEF4FE757E40E94771718164CF5698DA6
:102700007A8D8B8D9C8D20E030E040E251E40E9478
:102710007D16DC01CB01BC01CD010E94A714DC01B8
:10272000CB019C8B8B8B0FC080E791E09A8B898BC0
:1027300089899A890197F1F79A8B898B8B899C8972
:1027400001979C8B8B8B8B899C89009769F714C0B0
:102750006D897E898F89988D0E94A714DC01CB0139
:102760009C8B8B8B8B899C89988B8F878F85988985
:102770000197F1F7988B8F8780910A028D3008F4CA
:1027800067CF80E060E00E94210B0E94A00B0E94B6
:10279000730B83E00E94C90A8093090282E00E94C1
:1027A000C90A80930A0281E00E94C90A80930B0241
:1027B00081E061E043E00E94030B81E065E042E0DC
:1027C0000E94030B81E069E041E00E94030B82E874
:1027D00060E00E94210B80E090E0A0E2B1E48B87F2
:1027E0009C87AD87BE876B857C858D859E8526E61B
:1027F00036E646E655E40E947D16DC01CB018F8368
:102800009887A987BA876F81788589859A8520E01E
:1028100030E040E85FE30E94D71788232CF481E082
:1028200090E09E838D833FC06F81788589859A85EE
:1028300020E03FEF4FE757E40E94771718164CF55A
:102840006B857C858D859E8520E030E040E251E4FB
:102850000E947D16DC01CB01BC01CD010E94A714B2
:10286000DC01CB019E838D830FC080E791E09C83C8
:102870008B838B819C810197F1F79C838B838D8166
:102880009E8101979E838D838D819E81009769F73C
:1028900014C06F81788589859A850E94A714DC0110
:1028A000CB019E838D838D819E819A8389838981CB
:1028B0009A810197F1F79A83898380910A028D307A
:1028C00008F467CF80E060E00E94210B0E94A00B1B
:1028D0000E944C100E94FE100E94B2110E94B21180
:1028E0000E94A00B0E94A00B0E944C100E94FE10A0
:1028F0000E94B2110E94B2110E94A00B0E94B2115C
:102900000E94A00B0E94A00B0E944C100E94A00BE2
:102910000E944C100E94FE100E94B2110E94B2113F
:102920000E94A00B0E94A00B0E944C100E94FE105F
:102930000E94B2110E94B21180E090E06C960FB636
:10294000F894DEBF0FBECDBFCF91DF910895EF9217
:10295000FF920F931F937B018C0120E030E040E059
:102960005FE40E94A71788238CF0C801B70120E01C
:1029700030E040E05FE40E941F160E9407189B01B0
:10298000AC01205030404040504806C0C801B7015B
:102990000E9407189B01AC01B901CA011F910F9158
:1029A000FF90EF900895A0E0B0E0E9EDF4E10C9421
:1029B000151ADC012B01FA019C91923008F439C1FF
:1029C000EB018881823008F433C1943069F484309B
:1029D00009F02FC111969C9111978981981709F4DC
:1029E00028C1A0E0B2E025C1843009F421C18230C1
:1029F000A9F4923009F01DC19A01AD0188E0EA0105
:102A00000990AE01E90109929E018150C1F7E201EE
:102A1000898111969C918923818308C1923009F4A0
:102A200007C112962D903C901397EB018A819B81F0
:102A30001496AD90BD90CD90DC901797EC80FD8002
:102A40000E811F819101281B390BB90137FF04C08A
:102A500066277727621B730B603271050CF061C02B
:102A6000121613066CF537014801062E04C0969421
:102A70008794779467940A94D2F721E030E040E09D
:102A800050E004C0220F331F441F551F6A95D2F730
:102A900021503040404050402E213F2140235123BF
:102AA000211531054105510521F021E030E040E0DC
:102AB00050E079018A01E628F728082919293CC045
:102AC000232BD1F1260E371E35014601062E04C0F8
:102AD00096948794779467940A94D2F721E030E033
:102AE00040E050E004C0220F331F441F551F6A9579
:102AF000D2F721503040404050402A213B214C2108
:102B00005D21211531054105510521F021E030E01D
:102B100040E050E059016A01A628B728C828D92802
:102B20000BC0821593052CF01C01AA24BB2465015F
:102B300003C0EE24FF24870111969C91D2011196C7
:102B40008C91981709F445C0992339F0A801970191
:102B50002A193B094C095D0906C0A60195012E19E9
:102B60003F09400B510B57FD08C01182338222826E
:102B700024833583468357831DC081E0818333825C
:102B8000228288279927DC01821B930BA40BB50BAB
:102B900084839583A683B7830DC0220F331F441F00
:102BA000551F248335834683578382819381019700
:102BB000938382832481358146815781DA01C9015B
:102BC0000197A109B1098F5F9F4FAF4FBF4328F312
:102BD0000BC0918333822282EA0CFB1C0C1D1D1D4D
:102BE000E482F5820683178383E080832481358124
:102BF0004681578157FF1AC0C901AA2797FDA095A2
:102C0000BA2F81709070A070B07056954795379527
:102C10002795822B932BA42BB52B84839583A68396
:102C2000B78382819381019693838283DF0101C000
:102C3000D201CD01CDB7DEB7E2E10C94311AA0E2AA
:102C4000B0E0E5E2F6E10C94211A69837A838B8384
:102C50009C832D833E834F835887E9E0EE2EF12C31
:102C6000EC0EFD1ECE010196B7010E9430198E01B7
:102C70000F5E1F4FCE010596B8010E9430198A8958
:102C800091E089278A8BC701B801AE01475E5F4F8B
:102C90000E94D3140E945B18A096E6E00C943D1AA3
:102CA000A0E2B0E0E6E5F6E10C94211A69837A83AC
:102CB0008B839C832D833E834F835887F9E0EF2ECF
:102CC000F12CEC0EFD1ECE010196B7010E943019C9
:102CD0008E010F5E1F4FCE010596B8010E9430197C
:102CE000C701B801AE01475E5F4F0E94D3140E9436
:102CF0005B18A096E6E00C943D1AA0E2B0E0E3E891
:102D0000F6E10C94151A69837A838B839C832D8357
:102D10003E834F835887CE010196BE01675F7F4F88
:102D20000E943019CE010596BE016F5E7F4F0E9452
:102D300030199985923088F089898230C8F09430B2
:102D400019F4823051F404C0843029F4923081F4B3
:102D500080E092E0C6C0923049F420E09A858A89EA
:102D6000981321E02A87CE010996BBC0823049F42E
:102D700020E09A858A89981321E02A8BCE0141961A
:102D8000B0C02D843E844F8458886D887E888F889B
:102D9000988CEE24FF248701AA24BB24650140E01F
:102DA00050E060E070E0E0E0F0E0C1018170907020
:102DB000892BE9F0E60CF71C081D191D9A01AB01DF
:102DC0002A0D3B1D4C1D5D1D80E090E0A0E0B0E0B1
:102DD000E614F7040805190520F481E090E0A0E06E
:102DE000B0E0BA01A901480F591F6A1F7B1FAA0C46
:102DF000BB1CCC1CDD1C97FE08C081E090E0A0E06D
:102E0000B0E0A82AB92ACA2ADB2A3196E032F105B5
:102E100049F0660C771C881C991C5694479437948B
:102E20002794C3CFFA85EA892B893C898B859C85B9
:102E3000280F391F2E5F3F4F17C0CA018170907055
:102E4000892B61F016950795F794E79480E090E060
:102E5000A0E0B0E8E82AF92A0A2B1B2B76956795A3
:102E6000579547952F5F3F4F77FDE7CF0CC0440F35
:102E7000551F661F771F17FD4160EE0CFF1C001FDA
:102E8000111F21503040403090E0590790E0690711
:102E900090E4790760F32B8F3C8FDB01CA018F77B9
:102EA0009070A070B07080349105A105B10561F4F7
:102EB00047FD0AC0E114F1040105110529F0405C49
:102EC0005F4F6F4F7F4F40781A8EFE1711F081E0F1
:102ED0008A8F4D8F5E8F6F8F78A383E0898FCE01AD
:102EE00049960E945B18A096E2E10C94311AA8E181
:102EF000B0E0EDE7F7E10C94211A69837A838B83C4
:102F00009C832D833E834F83588789E0E82EF12CE4
:102F1000EC0EFD1ECE010196B7010E9430198E0104
:102F20000F5E1F4FCE010596B8010E9430198985AA
:102F3000823040F08989823028F0C701B8010E94B0
:102F4000A81901C08FEF6896E6E00C943D1AA8E13D
:102F5000B0E0EDEAF7E10C94211A69837A838B8360
:102F60009C832D833E834F83588789E0E82EF12C84
:102F7000EC0EFD1ECE010196B7010E9430198E01A4
:102F80000F5E1F4FCE010596B8010E94301989854A
:102F9000823040F08989823028F0C701B8010E9450
:102FA000A81901C08FEF6896E6E00C943D1AA8E1DD
:102FB000B0E0EDEDF7E10C94211A69837A838B83FD
:102FC0009C832D833E834F83588789E0E82EF12C24
:102FD000EC0EFD1ECE010196B7010E9430198E0144
:102FE0000F5E1F4FCE010596B8010E9430198985EA
:102FF000823040F08989823028F0C701B8010E94F0
:10300000A81901C081E06896E6E00C943D1AACE096
:10301000B0E0EDE0F8E10C94251A69837A838B83A4
:103020009C83CE010196BE016B5F7F4F0E943019D9
:103030008D81823061F1823050F1843021F48E81B3
:10304000882351F12EC02F81388537FD20C06E8135
:103050002F3131051CF06623F9F023C08EE190E09A
:10306000821B930B29853A854B855C8504C0569558
:103070004795379527958A95D2F76623B1F05095F5
:103080004095309521953F4F4F4F5F4F0EC020E048
:1030900030E040E050E009C02FEF3FEF4FEF5FE737
:1030A00004C020E030E040E050E8B901CA012C96AD
:1030B000E2E00C94411ADF92EF92FF920F931F937C
:1030C000FC01E480F58006811781D1808081823007
:1030D00048F480E090E0A0E1B0E0E82AF92A0A2B69
:1030E0001B2BA5C0843009F49FC0823021F4EE244C
:1030F000FF24870105C0E114F1040105110519F44D
:10310000E0E0F0E096C0628173819FEF623879075A
:103110000CF05BC022E83FEF261B370B2A3131054C
:103120002CF020E030E040E050E02AC0B801A701D8
:10313000022E04C076956795579547950A94D2F765
:1031400081E090E0A0E0B0E004C0880F991FAA1FC2
:10315000BB1F2A95D2F70197A109B1098E219F21A2
:10316000A023B1230097A105B10521F081E090E0F3
:10317000A0E0B0E09A01AB01282B392B4A2B5B2B46
:10318000DA01C9018F779070A070B070803491051A
:10319000A105B10539F427FF09C0205C3F4F4F4F0F
:1031A0005F4F04C0215C3F4F4F4F5F4FE0E0F0E0C6
:1031B0002030A0E03A07A0E04A07A0E45A0710F048
:1031C000E1E0F0E079018A0127C06038710564F51B
:1031D000FB01E158FF4FD801C7018F779070A070B5
:1031E000B07080349105A105B10539F4E7FE0DC03A
:1031F00080E490E0A0E0B0E004C08FE390E0A0E0C5
:10320000B0E0E80EF91E0A1F1B1F17FF05C0169538
:103210000795F794E794319687E016950795F7940C
:10322000E7948A95D1F705C0EE24FF248701EFEFDC
:10323000F0E06E2F679566276795902F9F77D7945C
:10324000DD24D7948E2F8695492F462B582F5D2944
:10325000B701CA011F910F91FF90EF90DF90089581
:10326000FC01DB01408151812281622F6F7770E088
:10327000221F2227221F9381892F880F822B282F1C
:1032800030E0991F9927991F11969C93119721154A
:103290003105A9F5411551056105710511F482E06B
:1032A00037C082E89FEF13969C938E9312979A01F2
:1032B000AB0167E0220F331F441F551F6A95D1F7FA
:1032C00083E08C930DC0220F331F441F551F1296AD
:1032D0008D919C911397019713969C938E931297BF
:1032E000203080E0380780E0480780E4580758F332
:1032F00014962D933D934D935C93179708952F3F0C
:10330000310579F4411551056105710519F484E021
:103310008C93089564FF03C081E08C9312C01C92CB
:1033200010C02F57304013963C932E93129783E092
:103330008C9387E0440F551F661F771F8A95D1F73E
:10334000706414964D935D936D937C9317970895D5
:103350001F93DC01FB019C91923008F447C08081EF
:10336000823008F443C0943051F411961C9184309B
:1033700099F58181682F70E0611B71093FC084302D
:1033800021F0923031F48230B9F18181882389F1C2
:103390002DC011961C9111978230F1F08181181780
:1033A000D9F412962D913C911397828193818217C3
:1033B000930794F028173907BCF014968D919D91CE
:1033C0000D90BC91A02D248135814681578128170D
:1033D00039074A075B0718F4112341F00AC0821726
:1033E0009307A407B50740F4112319F061E070E0DA
:1033F00005C06FEF7FEF02C060E070E0CB011F916E
:103400000895AA1BBB1B51E107C0AA1FBB1FA6172B
:10341000B70710F0A61BB70B881F991F5A95A9F77D
:1034200080959095BC01CD0108952F923F924F92C7
:103430005F926F927F928F929F92AF92BF92CF9244
:10344000DF92EF92FF920F931F93CF93DF93CDB74D
:10345000DEB7CA1BDB0B0FB6F894DEBF0FBECDBFC5
:1034600019942A88398848885F846E847D848C8486
:103470009B84AA84B984C884DF80EE80FD800C819F
:103480001B81AA81B981CE0FD11D0FB6F894DEBF82
:0C3490000FBECDBFED010895F894FFCFF2
:08349C00000000000000000028
:00000001FF
