:100000000C9472000C948D020C9493000C94930049
:100010000C9493000C94FA020C94D5020C94930067
:100020000C9493000C9493000C9493000C94930004
:100030000C9493000C9493000C9493000C949300F4
:100040000C9493000C9493000C9493000C949300E4
:100050000C9493000C9493000C9493000C949300D4
:100060000C9493000C9493000C9493000C949300C4
:100070000C9493000C9493000C9493000C949300B4
:100080000C9493000C9493000C9493000C949300A4
:100090000C9493000C9493000C9493000C94930094
:1000A0000C9493000C9493000C9493000C94930084
:1000B0000C9493000C9493000C9493000C94930074
:1000C0000C9493000C9493000C9493000C94930064
:1000D0000C9493000C9493000C9493000C94930054
:1000E0000C94930011241FBECFEFD1E2DEBFCDBF31
:1000F00000E00CBF12E0A0E0B2E0EAE9F2E100E0CB
:100100000BBF02C007900D92A831B107D9F712E0DA
:10011000A8E1B2E001C01D92A934B107E1F70E9445
:1001200097070C944B090C94000086E69EE001971B
:10013000F1F700004098419880E388B9429AEFEFC8
:10014000F7E43197F1F700C000004298E6E6FEE0E0
:100150003197F1F700004098419888B9429AEFEF43
:10016000F7E43197F1F700C000004298E6E6FEE0C0
:100170003197F1F700004098419888B9429A8FEF83
:1001800097E40197F1F700C000004298E6E6FEE030
:100190003197F1F700004098419880E288B9429A7F
:1001A0008FEF97E40197F1F700C00000429808959F
:1001B00098B19F7098B998B1282F207F922B98B949
:1001C00040984198429AEFEFF7E43197F1F700C079
:1001D0000000429898B19F7098B998B18295807F3D
:1001E000892B88B940984198429A8FEF97E40197FC
:1001F000F1F700C00000429808950E94950086E63D
:100200009EE00197F1F7000088E20E94D80081E0AB
:100210000E94D80086E00E94D8008EE00E94D8009C
:1002200080E80E94D800089598B19F7098B998B15D
:10023000282F207F922B98B9409A4198429AEFEF4D
:10024000F7E43197F1F700C00000429898B19F7031
:1002500098B998B18295807F892B88B9409A419846
:10026000429A8FEF97E40197F1F700C0000042989F
:10027000089580E80E94D8000895CF93DF93EC01A1
:100280008881882331F021960E9414018991882366
:10029000D9F7DF91CF910895823079F0833018F447
:1002A0008130C9F405C0833069F08430A1F40FC0F7
:1002B000862F81580E94D8000895862F81540E946D
:1002C000D8000895862F8D560E94D8000895862F55
:1002D0008D520E94D80008950F931F93CF93DF9300
:1002E0008A01E901882311F0662319F40E9439017B
:1002F00002C00E944C01C530D10571F4C80160E113
:1003000077E20E943709CB01C09690933102809327
:1003100030020E94140103C0C430D105B9F4C801F1
:1003200068EE73E00E943709CB017093330260934B
:1003300032026AE070E00E943709C096909348024A
:10034000809347020E94140181E001C080E0C33025
:10035000D10511F08130B1F4C80164E670E00E946B
:100360003709CB0170933302609332026AE070E088
:100370000E943709C09690934402809343020E94E2
:10038000140181E0C230D10511F08130B1F42AE0CE
:1003900030E0C801B9010E943709CB0170933302E4
:1003A00060933202B9010E943709C09690933E02D1
:1003B00080933D020E94140181E0C130D10511F00B
:1003C000813061F4C8016AE070E00E943709C0968C
:1003D00090934602809345020E941401C630D105D5
:1003E0001CF085E40E941401DF91CF911F910F91C1
:1003F000089581B18F6081B982B1807F82B9EAE0CE
:10040000F1E0808188618083EBE0F1E080818861A8
:10041000808308956C98749A08956D98759A0895DC
:10042000259A2D9A0895269A2E9A0895279A2F9AFA
:1004300008953B9A4398089587B1876F87B988B12B
:10044000807888B908958AB18E6F8AB9589A0895CC
:100450000E9419020E941C020E9423020E941002A4
:100460000E9413020E9416020E94F9010E940A02D1
:100470000E940D02089586B1886088B9089586B1FA
:10048000877F88B90895F894E9E6F0E0808182607A
:100490008083E89A78940895F894EAE6F0E0808101
:1004A00082608083EC9A78940895F894EAE6F0E00C
:1004B000808188608083ED9A78940895883018F060
:1004C00098E090937B008770806280937C00EAE7DD
:1004D000F0E0808180648083808184FFFDCF809103
:1004E0007900EAE7F0E090819061908310927B00C0
:1004F0000895CF93DF93D82FC62F842F0E945E02DA
:10050000482F80933C028D2F6C2F50E023E030E089
:100510000E946C01DF91CF9108951F920F920FB648
:100520000F9211248F939F93AF93BF9380912602D4
:1005300090912702A0912802B09129020196A11D55
:10054000B11D8093260290932702A0932802B093B6
:100550002902BF91AF919F918F910F900FBE0F9085
:100560001F901895E1E8F0E010828CEF80938500F1
:1005700081E08093840093E0909389008FEF8093D3
:10058000880090938B0080938A0090938D008093D5
:100590008C0090938700809386008BEA8093800084
:1005A000109282008CE0808308951F920F920FB604
:1005B0000F9211248F939F93AF93BF9380911E024C
:1005C00090911F02A0912002B09121020196A11DDD
:1005D000B11D80931E0290931F02A0932002B0933E
:1005E0002102BF91AF919F918F910F900FBE0F90FD
:1005F0001F9018951F920F920FB60F9211248F9390
:100600009F93AF93BF938091220290912302A09178
:100610002402B09125020196A11DB11D80932202F2
:1006200090932302A0932402B0932502BF91AF912F
:100630009F918F910F900FBE0F901F90189592B1C0
:10064000907F8F70982B92B9089586E00E941F03C7
:10065000089589E00E941F03089585E00E941F030A
:1006600008958AE00E941F03089584E00E941F03FA
:10067000089582E00E941F03089581E00E941F03F5
:10068000089588E00E941F03089580E00E941F03E0
:10069000089510921E0210921F02109220021092D2
:1006A0002102109222021092230210922402109230
:1006B0002502BC0180E090E00E94A90828E431EE08
:1006C00042E850E40E9415080E947D08DC01CB013D
:1006D000009719F40E9445030895FFCF10921E025F
:1006E00010921F021092200210922102FFCFEC0103
:1006F0000E942503CE010E946E03EC010E94290393
:10070000CE010E946E03CF93DF93EC010E942D0374
:10071000CE010E944903DF91CF910895CF93DF93DB
:10072000EC010E943103CE010E944903DF91CF9179
:100730000895CF93DF93EC010E943503CE01880F1B
:10074000991F0E944903DF91CF910895CF93DF93C2
:10075000EC010E943903CE01880F991F0E944903C2
:10076000DF91CF910895CF93DF93EC010E943D0379
:10077000CE01880F991F0E944903DF91CF91089500
:10078000CF93DF93EC010E944103CE01880F991FA4
:100790000E944903DF91CF910895F8940E942802A6
:1007A0000E9443020E94B2020E944C020E94550223
:1007B000789408958093280160932A0108955E98A3
:1007C0005F9808955E9A5F9A08955E985F9A08957B
:1007D0005E9A5F9808955C9A5D9A08950E94DF037F
:1007E00010922602109227021092280210922902DB
:1007F0008FEF9FE7A4E081509040A040E1F700C058
:1008000000008091260290912702A0912802B091C9
:1008100029028093380290933902A0933A02B09350
:100820003B0208950E94E2031092260210922702D2
:1008300010922802109229028FEF9FE7A4E08150C6
:100840009040A040E1F700C0000080912602909106
:100850002702A0912802B09129028093340290933C
:100860003502A0933602B093370208950E94E50343
:10087000109226021092270210922802109229024A
:100880008FEF9FE7A4E081509040A040E1F700C0C7
:1008900000008091260290912702A0912802B09139
:1008A000290280932A0290932B02A0932C02B093EA
:1008B0002D02089510928900682F70E080E090E08A
:1008C0000E94A9082BE734E14EEE5FE30E94150871
:1008D00020E030E04CE052E40E94B1070E947D0825
:1008E00060938800089510928B00682F70E080E07C
:1008F00090E00E94A9082BE734E14EEE5FE30E94EE
:10090000150820E030E04CE052E40E94B1070E945C
:100910007D0860938A00089510928D00682F70E022
:1009200080E090E00E94A9082BE734E14EEE5FE3FF
:100930000E94150820E030E04CE052E40E94B1072C
:100940000E947D0860938C00089583E08093890065
:100950008FEF80938800089583E080938B008FEF62
:1009600080938A00089583E080938D008FEF8093B9
:100970008C0008958FEF9FEFACE281509040A04033
:10098000E1F700C000000E94EE030E9412040E94E2
:100990003604409138025091390260913A027091C8
:1009A0003B028091340290913502A0913602B091C1
:1009B000370284179507A607B707D8F54091380284
:1009C0005091390260913A0270913B0280912A0263
:1009D00090912B02A0912C02B0912D0284179507C3
:1009E000A607B70730F58091380290913902A0919F
:1009F0003A02B0913B02853C29E0920720E0A20731
:100A000020E0B207B0F081E061E00E944C0180E09C
:100A100092E00E943D018FEF9FEFACE28150904049
:100A2000A040E1F700C0000081E00E94D80080E013
:100A3000089540912A0250912B0260912C027091EE
:100A40002D028091340290913502A0913602B0912E
:100A5000370284179507A607B707D8F540912A02F1
:100A600050912B0260912C0270912D0280913802DE
:100A700090913902A0913A02B0913B0284179507F8
:100A8000A607B70730F580912A0290912B02A0911A
:100A90002C02B0912D02893B2BE0920720E0A207A7
:100AA00020E0B207B0F081E061E00E944C0184E0F8
:100AB00092E00E943D018FEF9FEFACE281509040A9
:100AC000A040E1F700C0000081E00E94D80082E071
:100AD0000895409134025091350260913602709130
:100AE00037028091380290913902A0913A02B09178
:100AF0003B0284179507A607B707D8F54091340243
:100B000050913502609136027091370280912A022D
:100B100090912B02A0912C02B0912D028417950781
:100B2000A607B70730F58091340290913502A09165
:100B30003602B0913702813F2AE0920720E0A207F7
:100B400020E0B207B0F081E061E00E944C0189E052
:100B500092E00E943D018FEF9FEFACE28150904008
:100B6000A040E1F700C0000081E00E94D80081E0D1
:100B700008958091340290913502A0913602B0918F
:100B80003702803D27E0920720E0A20720E0B2076D
:100B900008F068C08091340290913502A09136022D
:100BA000B0913702853823E0920720E0A20720E0C9
:100BB000B20708F457C080912A0290912B02A091AD
:100BC0002C02B0912D02803D27E0920720E0A20781
:100BD00020E0B20708F046C080912A0290912B02D3
:100BE000A0912C02B0912D02893E23E0920720E0D3
:100BF000A20720E0B207B0F180913802909139024B
:100C0000A0913A02B0913B02803D27E0920720E09C
:100C1000A20720E0B20730F58091380290913902A6
:100C2000A0913A02B0913B02893E23E0920720E076
:100C3000A20720E0B207B0F081E061E00E944C0121
:100C40008FE092E00E943D018FEF9FEFACE2815078
:100C50009040A040E1F700C0000081E00E94D80071
:100C600083E00895089585E00E9473048FEF9FEF5D
:100C7000ACE281509040A040E1F700C000008CE35E
:100C80000E945A048FEF9FEFACE281509040A04049
:100C9000E1F700C0000082E30E9473048FEF9FEF32
:100CA000ACE281509040A040E1F700C0000080E03D
:100CB0000E945A048FEF9FEFACE281509040A04019
:100CC000E1F700C0000008950895C5E1D2E083E097
:100CD0000E945E0280931A0282E00E945E0280936C
:100CE000190281E00E945E028093180210921B029A
:100CF00081E061E043E00E94790281E065E042E04A
:100D00000E94790281E069E041E00E9479028091CD
:100D100019028D3048F081E080931B020E94250368
:100D200086E966E90E94DA0380911A028C3068F441
:100D300080911B02882349F481E080931B020E946A
:100D4000250382E862E30E94DA03809118028C3066
:100D500068F480911B02882349F481E080931B0290
:100D60000E94250382E362E80E94DA03809119025F
:100D70008C3080F580911A028C3060F580911802D9
:100D80008C3000F582E862E30E94DA0386E696EE94
:100D9000A0E081509040A040E1F782E362E80E9429
:100DA000DA038FEF9FE7A4E081509040A040E1F785
:100DB00000C00000809119028C3060F480911A020A
:100DC0008C3040F4809118028D3020F082E862E38C
:100DD0000E94DA03809119028D3008F478CF809157
:100DE0001A028D3008F473CF809118028D3008F408
:100DF0006ECF0E94250380E060E00E94DA038091BC
:100E00001C0290911D02019690931D0280931C027A
:100E1000CE010E943D0180911C0290911D020E9412
:100E20003D0155CF83E00E945E0280931A0282E06A
:100E30000E945E028093190281E00E945E0280930C
:100E4000180281E061E043E00E94790281E065E000
:100E500042E00E94790281E069E041E00E9479026B
:100E60000E94350380E06EE10E94DA0380911A024D
:100E70008D30C0F2089583E00E945E0280931A02D2
:100E800082E00E945E028093190281E00E945E026D
:100E90008093180281E061E043E00E94790281E0E2
:100EA00065E042E00E94790281E069E041E00E9451
:100EB00079020E94410380E06EE10E94DA03809192
:100EC00019028D30C0F20E94450386E696EEA0E03E
:100ED00081509040A040E1F783E00E945E02809341
:100EE0001A0282E00E945E028093190281E00E9451
:100EF0005E028093180281E061E043E00E94790283
:100F000081E065E042E00E94790281E069E041E031
:100F10000E9479020E9439038EE160E00E94DA03A8
:100F2000809118028D30C0F208950E9465060E94DB
:100F3000CD030E9495000E94FD000E94EB0384E611
:100F400064E60E94DA038FEF9FEFA6E7B1E08150DD
:100F50009040A040B040D9F700C000000E94950723
:100F60005058BB27AA270ED048C139D130F03ED106
:100F700020F031F49F3F11F41EF42EC10EF4E095E1
:100F8000E7FB24C1E92F4AD180F3BA176207730740
:100F90008407950718F071F49EF562C10EF4E09590
:100FA0000B2EBA2FA02D0B01B90190010C01CA0123
:100FB000A0011124FF27591B99F0593F50F4503ECE
:100FC00068F11A16F040A22F232F342F4427585FC0
:100FD000F3CF469537952795A795F0405395C9F7D8
:100FE0007EF41F16BA0B620B730B840BBAF0915090
:100FF000A1F0FF0FBB1F661F771F881FC2F70EC02F
:10100000BA0F621F731F841F48F487957795679501
:10101000B795F7959E3F08F0B3CF9395880F08F0EA
:101020009927EE0F9795879508950CD0E6C0DED0EE
:1010300040F0D5D030F021F45F3F19F0C7C0511116
:1010400010C1CAC0EBD098F39923C9F35523B1F36B
:10105000951B550BBB27AA2762177307840738F027
:101060009F5F5F4F220F331F441FAA1FA9F333D086
:101070000E2E3AF0E0E830D091505040E695001C3A
:10108000CAF729D0FE2F27D0660F771F881FBB1FF6
:10109000261737074807AB07B0E809F0BB0B802DD0
:1010A000BF01FF2793585F4F2AF09E3F510568F01C
:1010B0008DC0D7C05F3FECF3983EDCF38695779503
:1010C0006795B795F7959F5FC9F7880F911D96951E
:1010D000879597F90895E1E0660F771F881FBB1F7A
:1010E000621773078407BA0720F0621B730B840B27
:1010F000BA0BEE1F88F7E095089598D088F09F57B7
:1011000090F0B92F9927B751A0F0D1F0660F771F53
:10111000881F991F1AF0BA95C9F712C0B13081F033
:101120009FD0B1E008959CC0672F782F8827B85FC3
:1011300039F0B93FCCF3869577956795B395D9F794
:101140003EF490958095709561957F4F8F4F9F4F9E
:101150000895E89409C097FB3EF4909580957095AA
:1011600061957F4F8F4F9F4F9923A9F0F92F96E9F3
:10117000BB279395F695879577956795B795F11168
:10118000F8CFFAF4BB0F11F460FF1BC06F5F7F4F05
:101190008F4F9F4F16C0882311F096E911C0772317
:1011A00021F09EE8872F762F05C0662371F096E820
:1011B000862F70E060E02AF09A95660F771F881FEF
:1011C000DAF7880F9695879597F9089597F99F67AD
:1011D00080E870E060E008959FEF80EC08950024BF
:1011E0000A941616170618060906089500240A948C
:1011F00012161306140605060895092E0394000C12
:1012000011F4882352F0BB0F40F4BF2B11F460FFA0
:1012100004C06F5F7F4F8F4F9F4F089557FD9058C9
:10122000440F551F59F05F3F71F04795880F97FBAA
:10123000991F61F09F3F79F0879508951216130664
:101240001406551FF2CF4695F1DF08C01616170693
:101250001806991FF1CF86957105610508940895C8
:10126000E894BB2766277727CB0197F90895AA1B37
:10127000BB1B51E107C0AA1FBB1FA617B70710F081
:10128000A61BB70B881F991F5A95A9F780959095B3
:0A129000BC01CD010895F894FFCFD2
:10129A0052656400426C756500477265656E00426E
:0812AA006C61636B0020000081
:00000001FF
